{"contracts/CalculadoraBlockchain.sol":{"CalculadoraBlockchain":{"abi":[{"anonymous":false,"inputs":[{"indexed":false,"internalType":"string","name":"tipo","type":"string"},{"indexed":false,"internalType":"int256","name":"a","type":"int256"},{"indexed":false,"internalType":"int256","name":"b","type":"int256"},{"indexed":false,"internalType":"int256","name":"resultado","type":"int256"}],"name":"OperacionRealizada","type":"event"},{"inputs":[{"internalType":"int256","name":"a","type":"int256"},{"internalType":"int256","name":"b","type":"int256"}],"name":"dividir","outputs":[{"internalType":"int256","name":"","type":"int256"}],"stateMutability":"nonpayable","type":"function"},{"inputs":[{"internalType":"int256","name":"a","type":"int256"},{"internalType":"int256","name":"b","type":"int256"}],"name":"multiplicar","outputs":[{"internalType":"int256","name":"","type":"int256"}],"stateMutability":"nonpayable","type":"function"},{"inputs":[],"name":"obtenerUltimoResultado","outputs":[{"internalType":"int256","name":"","type":"int256"}],"stateMutability":"view","type":"function"},{"inputs":[{"internalType":"int256","name":"a","type":"int256"},{"internalType":"int256","name":"b","type":"int256"}],"name":"restar","outputs":[{"internalType":"int256","name":"","type":"int256"}],"stateMutability":"nonpayable","type":"function"},{"inputs":[{"internalType":"int256","name":"a","type":"int256"},{"internalType":"int256","name":"b","type":"int256"}],"name":"sumar","outputs":[{"internalType":"int256","name":"","type":"int256"}],"stateMutability":"nonpayable","type":"function"}],"evm":{"bytecode":{"linkReferences":{},"object":"608060405234801561001057600080fd5b5061086c806100206000396000f3fe608060405234801561001057600080fd5b50600436106100575760003560e01c8063269733311461005c5780634610c77e1461008c5780637db2382c146100bc578063a8ee60ca146100ec578063cc60485f1461010a575b600080fd5b61007660048036038101906100719190610330565b61013a565b604051610083919061037f565b60405180910390f35b6100a660048036038101906100a19190610330565b610196565b6040516100b3919061037f565b60405180910390f35b6100d660048036038101906100d19190610330565b6101f2565b6040516100e3919061037f565b60405180910390f35b6100f4610290565b604051610101919061037f565b60405180910390f35b610124600480360381019061011f9190610330565b610299565b604051610131919061037f565b60405180910390f35b6000818361014891906103c9565b6000819055507fc2ef23a665ac5962e8b4f46645dd25325aa6c107a9037c7d227f93703826907083836000546040516101839392919061046a565b60405180910390a1600054905092915050565b600081836101a491906104b4565b6000819055507fc2ef23a665ac5962e8b4f46645dd25325aa6c107a9037c7d227f93703826907083836000546040516101df93929190610578565b60405180910390a1600054905092915050565b6000808203610236576040517f08c379a000000000000000000000000000000000000000000000000000000000815260040161022d9061060e565b60405180910390fd5b8183610242919061065d565b6000819055507fc2ef23a665ac5962e8b4f46645dd25325aa6c107a9037c7d227f937038269070838360005460405161027d93929190610713565b60405180910390a1600054905092915050565b60008054905090565b600081836102a7919061075d565b6000819055507fc2ef23a665ac5962e8b4f46645dd25325aa6c107a9037c7d227f93703826907083836000546040516102e2939291906107ec565b60405180910390a1600054905092915050565b600080fd5b6000819050919050565b61030d816102fa565b811461031857600080fd5b50565b60008135905061032a81610304565b92915050565b60008060408385031215610347576103466102f5565b5b60006103558582860161031b565b92505060206103668582860161031b565b9150509250929050565b610379816102fa565b82525050565b60006020820190506103946000830184610370565b92915050565b7f4e487b7100000000000000000000000000000000000000000000000000000000600052601160045260246000fd5b60006103d4826102fa565b91506103df836102fa565b9250828201905082811215600083121683821260008412151617156104075761040661039a565b5b92915050565b600082825260208201905092915050565b7f53756d6100000000000000000000000000000000000000000000000000000000600082015250565b600061045460048361040d565b915061045f8261041e565b602082019050919050565b6000608082019050818103600083015261048381610447565b90506104926020830186610370565b61049f6040830185610370565b6104ac6060830184610370565b949350505050565b60006104bf826102fa565b91506104ca836102fa565b92508282026104d8816102fa565b91507f800000000000000000000000000000000000000000000000000000000000000084146000841216156105105761050f61039a565b5b82820584148315176105255761052461039a565b5b5092915050565b7f4d756c7469706c69636163696f6e000000000000000000000000000000000000600082015250565b6000610562600e8361040d565b915061056d8261052c565b602082019050919050565b6000608082019050818103600083015261059181610555565b90506105a06020830186610370565b6105ad6040830185610370565b6105ba6060830184610370565b949350505050565b7f4e6f207365207075656465206469766964697220706f72206365726f00000000600082015250565b60006105f8601c8361040d565b9150610603826105c2565b602082019050919050565b60006020820190508181036000830152610627816105eb565b9050919050565b7f4e487b7100000000000000000000000000000000000000000000000000000000600052601260045260246000fd5b6000610668826102fa565b9150610673836102fa565b9250826106835761068261062e565b5b600160000383147f8000000000000000000000000000000000000000000000000000000000000000831416156106bc576106bb61039a565b5b828205905092915050565b7f4469766973696f6e000000000000000000000000000000000000000000000000600082015250565b60006106fd60088361040d565b9150610708826106c7565b602082019050919050565b6000608082019050818103600083015261072c816106f0565b905061073b6020830186610370565b6107486040830185610370565b6107556060830184610370565b949350505050565b6000610768826102fa565b9150610773836102fa565b925082820390508181126000841216828213600085121516171561079a5761079961039a565b5b92915050565b7f5265737461000000000000000000000000000000000000000000000000000000600082015250565b60006107d660058361040d565b91506107e1826107a0565b602082019050919050565b60006080820190508181036000830152610805816107c9565b90506108146020830186610370565b6108216040830185610370565b61082e6060830184610370565b94935050505056fea2646970667358221220a9637924a30e5ab47741d458f47003c176f2fed7b73bf38d1c571aaa0549f01864736f6c63430008180033","opcodes":"PUSH1 0x80 PUSH1 0x40 MSTORE CALLVALUE DUP1 ISZERO PUSH2 0x10 JUMPI PUSH1 0x0 DUP1 REVERT JUMPDEST POP PUSH2 0x86C DUP1 PUSH2 0x20 PUSH1 0x0 CODECOPY PUSH1 0x0 RETURN INVALID PUSH1 0x80 PUSH1 0x40 MSTORE CALLVALUE DUP1 ISZERO PUSH2 0x10 JUMPI PUSH1 0x0 DUP1 REVERT JUMPDEST POP PUSH1 0x4 CALLDATASIZE LT PUSH2 0x57 JUMPI PUSH1 0x0 CALLDATALOAD PUSH1 0xE0 SHR DUP1 PUSH4 0x26973331 EQ PUSH2 0x5C JUMPI DUP1 PUSH4 0x4610C77E EQ PUSH2 0x8C JUMPI DUP1 PUSH4 0x7DB2382C EQ PUSH2 0xBC JUMPI DUP1 PUSH4 0xA8EE60CA EQ PUSH2 0xEC JUMPI DUP1 PUSH4 0xCC60485F EQ PUSH2 0x10A JUMPI JUMPDEST PUSH1 0x0 DUP1 REVERT JUMPDEST PUSH2 0x76 PUSH1 0x4 DUP1 CALLDATASIZE SUB DUP2 ADD SWAP1 PUSH2 0x71 SWAP2 SWAP1 PUSH2 0x330 JUMP JUMPDEST PUSH2 0x13A JUMP JUMPDEST PUSH1 0x40 MLOAD PUSH2 0x83 SWAP2 SWAP1 PUSH2 0x37F JUMP JUMPDEST PUSH1 0x40 MLOAD DUP1 SWAP2 SUB SWAP1 RETURN JUMPDEST PUSH2 0xA6 PUSH1 0x4 DUP1 CALLDATASIZE SUB DUP2 ADD SWAP1 PUSH2 0xA1 SWAP2 SWAP1 PUSH2 0x330 JUMP JUMPDEST PUSH2 0x196 JUMP JUMPDEST PUSH1 0x40 MLOAD PUSH2 0xB3 SWAP2 SWAP1 PUSH2 0x37F JUMP JUMPDEST PUSH1 0x40 MLOAD DUP1 SWAP2 SUB SWAP1 RETURN JUMPDEST PUSH2 0xD6 PUSH1 0x4 DUP1 CALLDATASIZE SUB DUP2 ADD SWAP1 PUSH2 0xD1 SWAP2 SWAP1 PUSH2 0x330 JUMP JUMPDEST PUSH2 0x1F2 JUMP JUMPDEST PUSH1 0x40 MLOAD PUSH2 0xE3 SWAP2 SWAP1 PUSH2 0x37F JUMP JUMPDEST PUSH1 0x40 MLOAD DUP1 SWAP2 SUB SWAP1 RETURN JUMPDEST PUSH2 0xF4 PUSH2 0x290 JUMP JUMPDEST PUSH1 0x40 MLOAD PUSH2 0x101 SWAP2 SWAP1 PUSH2 0x37F JUMP JUMPDEST PUSH1 0x40 MLOAD DUP1 SWAP2 SUB SWAP1 RETURN JUMPDEST PUSH2 0x124 PUSH1 0x4 DUP1 CALLDATASIZE SUB DUP2 ADD SWAP1 PUSH2 0x11F SWAP2 SWAP1 PUSH2 0x330 JUMP JUMPDEST PUSH2 0x299 JUMP JUMPDEST PUSH1 0x40 MLOAD PUSH2 0x131 SWAP2 SWAP1 PUSH2 0x37F JUMP JUMPDEST PUSH1 0x40 MLOAD DUP1 SWAP2 SUB SWAP1 RETURN JUMPDEST PUSH1 0x0 DUP2 DUP4 PUSH2 0x148 SWAP2 SWAP1 PUSH2 0x3C9 JUMP JUMPDEST PUSH1 0x0 DUP2 SWAP1 SSTORE POP PUSH32 0xC2EF23A665AC5962E8B4F46645DD25325AA6C107A9037C7D227F937038269070 DUP4 DUP4 PUSH1 0x0 SLOAD PUSH1 0x40 MLOAD PUSH2 0x183 SWAP4 SWAP3 SWAP2 SWAP1 PUSH2 0x46A JUMP JUMPDEST PUSH1 0x40 MLOAD DUP1 SWAP2 SUB SWAP1 LOG1 PUSH1 0x0 SLOAD SWAP1 POP SWAP3 SWAP2 POP POP JUMP JUMPDEST PUSH1 0x0 DUP2 DUP4 PUSH2 0x1A4 SWAP2 SWAP1 PUSH2 0x4B4 JUMP JUMPDEST PUSH1 0x0 DUP2 SWAP1 SSTORE POP PUSH32 0xC2EF23A665AC5962E8B4F46645DD25325AA6C107A9037C7D227F937038269070 DUP4 DUP4 PUSH1 0x0 SLOAD PUSH1 0x40 MLOAD PUSH2 0x1DF SWAP4 SWAP3 SWAP2 SWAP1 PUSH2 0x578 JUMP JUMPDEST PUSH1 0x40 MLOAD DUP1 SWAP2 SUB SWAP1 LOG1 PUSH1 0x0 SLOAD SWAP1 POP SWAP3 SWAP2 POP POP JUMP JUMPDEST PUSH1 0x0 DUP1 DUP3 SUB PUSH2 0x236 JUMPI PUSH1 0x40 MLOAD PUSH32 0x8C379A000000000000000000000000000000000000000000000000000000000 DUP2 MSTORE PUSH1 0x4 ADD PUSH2 0x22D SWAP1 PUSH2 0x60E JUMP JUMPDEST PUSH1 0x40 MLOAD DUP1 SWAP2 SUB SWAP1 REVERT JUMPDEST DUP2 DUP4 PUSH2 0x242 SWAP2 SWAP1 PUSH2 0x65D JUMP JUMPDEST PUSH1 0x0 DUP2 SWAP1 SSTORE POP PUSH32 0xC2EF23A665AC5962E8B4F46645DD25325AA6C107A9037C7D227F937038269070 DUP4 DUP4 PUSH1 0x0 SLOAD PUSH1 0x40 MLOAD PUSH2 0x27D SWAP4 SWAP3 SWAP2 SWAP1 PUSH2 0x713 JUMP JUMPDEST PUSH1 0x40 MLOAD DUP1 SWAP2 SUB SWAP1 LOG1 PUSH1 0x0 SLOAD SWAP1 POP SWAP3 SWAP2 POP POP JUMP JUMPDEST PUSH1 0x0 DUP1 SLOAD SWAP1 POP SWAP1 JUMP JUMPDEST PUSH1 0x0 DUP2 DUP4 PUSH2 0x2A7 SWAP2 SWAP1 PUSH2 0x75D JUMP JUMPDEST PUSH1 0x0 DUP2 SWAP1 SSTORE POP PUSH32 0xC2EF23A665AC5962E8B4F46645DD25325AA6C107A9037C7D227F937038269070 DUP4 DUP4 PUSH1 0x0 SLOAD PUSH1 0x40 MLOAD PUSH2 0x2E2 SWAP4 SWAP3 SWAP2 SWAP1 PUSH2 0x7EC JUMP JUMPDEST PUSH1 0x40 MLOAD DUP1 SWAP2 SUB SWAP1 LOG1 PUSH1 0x0 SLOAD SWAP1 POP SWAP3 SWAP2 POP POP JUMP JUMPDEST PUSH1 0x0 DUP1 REVERT JUMPDEST PUSH1 0x0 DUP2 SWAP1 POP SWAP2 SWAP1 POP JUMP JUMPDEST PUSH2 0x30D DUP2 PUSH2 0x2FA JUMP JUMPDEST DUP2 EQ PUSH2 0x318 JUMPI PUSH1 0x0 DUP1 REVERT JUMPDEST POP JUMP JUMPDEST PUSH1 0x0 DUP2 CALLDATALOAD SWAP1 POP PUSH2 0x32A DUP2 PUSH2 0x304 JUMP JUMPDEST SWAP3 SWAP2 POP POP JUMP JUMPDEST PUSH1 0x0 DUP1 PUSH1 0x40 DUP4 DUP6 SUB SLT ISZERO PUSH2 0x347 JUMPI PUSH2 0x346 PUSH2 0x2F5 JUMP JUMPDEST JUMPDEST PUSH1 0x0 PUSH2 0x355 DUP6 DUP3 DUP7 ADD PUSH2 0x31B JUMP JUMPDEST SWAP3 POP POP PUSH1 0x20 PUSH2 0x366 DUP6 DUP3 DUP7 ADD PUSH2 0x31B JUMP JUMPDEST SWAP2 POP POP SWAP3 POP SWAP3 SWAP1 POP JUMP JUMPDEST PUSH2 0x379 DUP2 PUSH2 0x2FA JUMP JUMPDEST DUP3 MSTORE POP POP JUMP JUMPDEST PUSH1 0x0 PUSH1 0x20 DUP3 ADD SWAP1 POP PUSH2 0x394 PUSH1 0x0 DUP4 ADD DUP5 PUSH2 0x370 JUMP JUMPDEST SWAP3 SWAP2 POP POP JUMP JUMPDEST PUSH32 0x4E487B7100000000000000000000000000000000000000000000000000000000 PUSH1 0x0 MSTORE PUSH1 0x11 PUSH1 0x4 MSTORE PUSH1 0x24 PUSH1 0x0 REVERT JUMPDEST PUSH1 0x0 PUSH2 0x3D4 DUP3 PUSH2 0x2FA JUMP JUMPDEST SWAP2 POP PUSH2 0x3DF DUP4 PUSH2 0x2FA JUMP JUMPDEST SWAP3 POP DUP3 DUP3 ADD SWAP1 POP DUP3 DUP2 SLT ISZERO PUSH1 0x0 DUP4 SLT AND DUP4 DUP3 SLT PUSH1 0x0 DUP5 SLT ISZERO AND OR ISZERO PUSH2 0x407 JUMPI PUSH2 0x406 PUSH2 0x39A JUMP JUMPDEST JUMPDEST SWAP3 SWAP2 POP POP JUMP JUMPDEST PUSH1 0x0 DUP3 DUP3 MSTORE PUSH1 0x20 DUP3 ADD SWAP1 POP SWAP3 SWAP2 POP POP JUMP JUMPDEST PUSH32 0x53756D6100000000000000000000000000000000000000000000000000000000 PUSH1 0x0 DUP3 ADD MSTORE POP JUMP JUMPDEST PUSH1 0x0 PUSH2 0x454 PUSH1 0x4 DUP4 PUSH2 0x40D JUMP JUMPDEST SWAP2 POP PUSH2 0x45F DUP3 PUSH2 0x41E JUMP JUMPDEST PUSH1 0x20 DUP3 ADD SWAP1 POP SWAP2 SWAP1 POP JUMP JUMPDEST PUSH1 0x0 PUSH1 0x80 DUP3 ADD SWAP1 POP DUP2 DUP2 SUB PUSH1 0x0 DUP4 ADD MSTORE PUSH2 0x483 DUP2 PUSH2 0x447 JUMP JUMPDEST SWAP1 POP PUSH2 0x492 PUSH1 0x20 DUP4 ADD DUP7 PUSH2 0x370 JUMP JUMPDEST PUSH2 0x49F PUSH1 0x40 DUP4 ADD DUP6 PUSH2 0x370 JUMP JUMPDEST PUSH2 0x4AC PUSH1 0x60 DUP4 ADD DUP5 PUSH2 0x370 JUMP JUMPDEST SWAP5 SWAP4 POP POP POP POP JUMP JUMPDEST PUSH1 0x0 PUSH2 0x4BF DUP3 PUSH2 0x2FA JUMP JUMPDEST SWAP2 POP PUSH2 0x4CA DUP4 PUSH2 0x2FA JUMP JUMPDEST SWAP3 POP DUP3 DUP3 MUL PUSH2 0x4D8 DUP2 PUSH2 0x2FA JUMP JUMPDEST SWAP2 POP PUSH32 0x8000000000000000000000000000000000000000000000000000000000000000 DUP5 EQ PUSH1 0x0 DUP5 SLT AND ISZERO PUSH2 0x510 JUMPI PUSH2 0x50F PUSH2 0x39A JUMP JUMPDEST JUMPDEST DUP3 DUP3 SDIV DUP5 EQ DUP4 ISZERO OR PUSH2 0x525 JUMPI PUSH2 0x524 PUSH2 0x39A JUMP JUMPDEST JUMPDEST POP SWAP3 SWAP2 POP POP JUMP JUMPDEST PUSH32 0x4D756C7469706C69636163696F6E000000000000000000000000000000000000 PUSH1 0x0 DUP3 ADD MSTORE POP JUMP JUMPDEST PUSH1 0x0 PUSH2 0x562 PUSH1 0xE DUP4 PUSH2 0x40D JUMP JUMPDEST SWAP2 POP PUSH2 0x56D DUP3 PUSH2 0x52C JUMP JUMPDEST PUSH1 0x20 DUP3 ADD SWAP1 POP SWAP2 SWAP1 POP JUMP JUMPDEST PUSH1 0x0 PUSH1 0x80 DUP3 ADD SWAP1 POP DUP2 DUP2 SUB PUSH1 0x0 DUP4 ADD MSTORE PUSH2 0x591 DUP2 PUSH2 0x555 JUMP JUMPDEST SWAP1 POP PUSH2 0x5A0 PUSH1 0x20 DUP4 ADD DUP7 PUSH2 0x370 JUMP JUMPDEST PUSH2 0x5AD PUSH1 0x40 DUP4 ADD DUP6 PUSH2 0x370 JUMP JUMPDEST PUSH2 0x5BA PUSH1 0x60 DUP4 ADD DUP5 PUSH2 0x370 JUMP JUMPDEST SWAP5 SWAP4 POP POP POP POP JUMP JUMPDEST PUSH32 0x4E6F207365207075656465206469766964697220706F72206365726F00000000 PUSH1 0x0 DUP3 ADD MSTORE POP JUMP JUMPDEST PUSH1 0x0 PUSH2 0x5F8 PUSH1 0x1C DUP4 PUSH2 0x40D JUMP JUMPDEST SWAP2 POP PUSH2 0x603 DUP3 PUSH2 0x5C2 JUMP JUMPDEST PUSH1 0x20 DUP3 ADD SWAP1 POP SWAP2 SWAP1 POP JUMP JUMPDEST PUSH1 0x0 PUSH1 0x20 DUP3 ADD SWAP1 POP DUP2 DUP2 SUB PUSH1 0x0 DUP4 ADD MSTORE PUSH2 0x627 DUP2 PUSH2 0x5EB JUMP JUMPDEST SWAP1 POP SWAP2 SWAP1 POP JUMP JUMPDEST PUSH32 0x4E487B7100000000000000000000000000000000000000000000000000000000 PUSH1 0x0 MSTORE PUSH1 0x12 PUSH1 0x4 MSTORE PUSH1 0x24 PUSH1 0x0 REVERT JUMPDEST PUSH1 0x0 PUSH2 0x668 DUP3 PUSH2 0x2FA JUMP JUMPDEST SWAP2 POP PUSH2 0x673 DUP4 PUSH2 0x2FA JUMP JUMPDEST SWAP3 POP DUP3 PUSH2 0x683 JUMPI PUSH2 0x682 PUSH2 0x62E JUMP JUMPDEST JUMPDEST PUSH1 0x1 PUSH1 0x0 SUB DUP4 EQ PUSH32 0x8000000000000000000000000000000000000000000000000000000000000000 DUP4 EQ AND ISZERO PUSH2 0x6BC JUMPI PUSH2 0x6BB PUSH2 0x39A JUMP JUMPDEST JUMPDEST DUP3 DUP3 SDIV SWAP1 POP SWAP3 SWAP2 POP POP JUMP JUMPDEST PUSH32 0x4469766973696F6E000000000000000000000000000000000000000000000000 PUSH1 0x0 DUP3 ADD MSTORE POP JUMP JUMPDEST PUSH1 0x0 PUSH2 0x6FD PUSH1 0x8 DUP4 PUSH2 0x40D JUMP JUMPDEST SWAP2 POP PUSH2 0x708 DUP3 PUSH2 0x6C7 JUMP JUMPDEST PUSH1 0x20 DUP3 ADD SWAP1 POP SWAP2 SWAP1 POP JUMP JUMPDEST PUSH1 0x0 PUSH1 0x80 DUP3 ADD SWAP1 POP DUP2 DUP2 SUB PUSH1 0x0 DUP4 ADD MSTORE PUSH2 0x72C DUP2 PUSH2 0x6F0 JUMP JUMPDEST SWAP1 POP PUSH2 0x73B PUSH1 0x20 DUP4 ADD DUP7 PUSH2 0x370 JUMP JUMPDEST PUSH2 0x748 PUSH1 0x40 DUP4 ADD DUP6 PUSH2 0x370 JUMP JUMPDEST PUSH2 0x755 PUSH1 0x60 DUP4 ADD DUP5 PUSH2 0x370 JUMP JUMPDEST SWAP5 SWAP4 POP POP POP POP JUMP JUMPDEST PUSH1 0x0 PUSH2 0x768 DUP3 PUSH2 0x2FA JUMP JUMPDEST SWAP2 POP PUSH2 0x773 DUP4 PUSH2 0x2FA JUMP JUMPDEST SWAP3 POP DUP3 DUP3 SUB SWAP1 POP DUP2 DUP2 SLT PUSH1 0x0 DUP5 SLT AND DUP3 DUP3 SGT PUSH1 0x0 DUP6 SLT ISZERO AND OR ISZERO PUSH2 0x79A JUMPI PUSH2 0x799 PUSH2 0x39A JUMP JUMPDEST JUMPDEST SWAP3 SWAP2 POP POP JUMP JUMPDEST PUSH32 0x5265737461000000000000000000000000000000000000000000000000000000 PUSH1 0x0 DUP3 ADD MSTORE POP JUMP JUMPDEST PUSH1 0x0 PUSH2 0x7D6 PUSH1 0x5 DUP4 PUSH2 0x40D JUMP JUMPDEST SWAP2 POP PUSH2 0x7E1 DUP3 PUSH2 0x7A0 JUMP JUMPDEST PUSH1 0x20 DUP3 ADD SWAP1 POP SWAP2 SWAP1 POP JUMP JUMPDEST PUSH1 0x0 PUSH1 0x80 DUP3 ADD SWAP1 POP DUP2 DUP2 SUB PUSH1 0x0 DUP4 ADD MSTORE PUSH2 0x805 DUP2 PUSH2 0x7C9 JUMP JUMPDEST SWAP1 POP PUSH2 0x814 PUSH1 0x20 DUP4 ADD DUP7 PUSH2 0x370 JUMP JUMPDEST PUSH2 0x821 PUSH1 0x40 DUP4 ADD DUP6 PUSH2 0x370 JUMP JUMPDEST PUSH2 0x82E PUSH1 0x60 DUP4 ADD DUP5 PUSH2 0x370 JUMP JUMPDEST SWAP5 SWAP4 POP POP POP POP JUMP INVALID LOG2 PUSH5 0x6970667358 0x22 SLT KECCAK256 0xA9 PUSH4 0x7924A30E GAS 0xB4 PUSH24 0x41D458F47003C176F2FED7B73BF38D1C571AAA0549F01864 PUSH20 0x6F6C634300081800330000000000000000000000 "},"methodIdentifiers":{"dividir(int256,int256)":"7db2382c","multiplicar(int256,int256)":"4610c77e","obtenerUltimoResultado()":"a8ee60ca","restar(int256,int256)":"cc60485f","sumar(int256,int256)":"26973331"}}}}}